{
  "contractName": "Parking",
  "abi": [
    {
      "inputs": [],
      "stateMutability": "nonpayable",
      "type": "constructor"
    },
    {
      "anonymous": false,
      "inputs": [
        {
          "indexed": false,
          "internalType": "uint256",
          "name": "_id",
          "type": "uint256"
        }
      ],
      "name": "ParkingAdded",
      "type": "event"
    },
    {
      "anonymous": false,
      "inputs": [
        {
          "indexed": false,
          "internalType": "uint256",
          "name": "_id",
          "type": "uint256"
        }
      ],
      "name": "ParkingDeleted",
      "type": "event"
    },
    {
      "anonymous": false,
      "inputs": [
        {
          "indexed": false,
          "internalType": "uint256",
          "name": "_id",
          "type": "uint256"
        }
      ],
      "name": "ParkingEdited",
      "type": "event"
    },
    {
      "anonymous": false,
      "inputs": [
        {
          "indexed": false,
          "internalType": "uint256",
          "name": "_id",
          "type": "uint256"
        }
      ],
      "name": "TimeslotAdded",
      "type": "event"
    },
    {
      "anonymous": false,
      "inputs": [
        {
          "indexed": false,
          "internalType": "uint256",
          "name": "_id",
          "type": "uint256"
        }
      ],
      "name": "TimeslotDeleted",
      "type": "event"
    },
    {
      "anonymous": false,
      "inputs": [
        {
          "indexed": false,
          "internalType": "uint256",
          "name": "_id",
          "type": "uint256"
        }
      ],
      "name": "TimeslotEdited",
      "type": "event"
    },
    {
      "anonymous": false,
      "inputs": [
        {
          "indexed": false,
          "internalType": "uint256",
          "name": "_id",
          "type": "uint256"
        }
      ],
      "name": "UserAdded",
      "type": "event"
    },
    {
      "anonymous": false,
      "inputs": [
        {
          "indexed": false,
          "internalType": "uint256",
          "name": "_id",
          "type": "uint256"
        }
      ],
      "name": "UserDeleted",
      "type": "event"
    },
    {
      "anonymous": false,
      "inputs": [
        {
          "indexed": false,
          "internalType": "uint256",
          "name": "_id",
          "type": "uint256"
        }
      ],
      "name": "UserEdited",
      "type": "event"
    },
    {
      "inputs": [],
      "name": "ParkingCount",
      "outputs": [
        {
          "internalType": "uint256",
          "name": "",
          "type": "uint256"
        }
      ],
      "stateMutability": "view",
      "type": "function",
      "constant": true
    },
    {
      "inputs": [],
      "name": "UserCount",
      "outputs": [
        {
          "internalType": "uint256",
          "name": "",
          "type": "uint256"
        }
      ],
      "stateMutability": "view",
      "type": "function",
      "constant": true
    },
    {
      "inputs": [
        {
          "internalType": "uint256",
          "name": "",
          "type": "uint256"
        }
      ],
      "name": "parkings",
      "outputs": [
        {
          "internalType": "uint256",
          "name": "id",
          "type": "uint256"
        },
        {
          "internalType": "string",
          "name": "name",
          "type": "string"
        },
        {
          "internalType": "string",
          "name": "location",
          "type": "string"
        },
        {
          "internalType": "string",
          "name": "capacity",
          "type": "string"
        }
      ],
      "stateMutability": "view",
      "type": "function",
      "constant": true
    },
    {
      "inputs": [],
      "name": "timeslotCount",
      "outputs": [
        {
          "internalType": "uint256",
          "name": "",
          "type": "uint256"
        }
      ],
      "stateMutability": "view",
      "type": "function",
      "constant": true
    },
    {
      "inputs": [
        {
          "internalType": "uint256",
          "name": "",
          "type": "uint256"
        }
      ],
      "name": "timeslots",
      "outputs": [
        {
          "internalType": "uint256",
          "name": "id",
          "type": "uint256"
        },
        {
          "internalType": "string",
          "name": "duration",
          "type": "string"
        },
        {
          "internalType": "string",
          "name": "Price",
          "type": "string"
        }
      ],
      "stateMutability": "view",
      "type": "function",
      "constant": true
    },
    {
      "inputs": [
        {
          "internalType": "uint256",
          "name": "",
          "type": "uint256"
        }
      ],
      "name": "users",
      "outputs": [
        {
          "internalType": "uint256",
          "name": "id",
          "type": "uint256"
        },
        {
          "internalType": "string",
          "name": "name",
          "type": "string"
        },
        {
          "internalType": "string",
          "name": "password",
          "type": "string"
        },
        {
          "internalType": "string",
          "name": "phone",
          "type": "string"
        }
      ],
      "stateMutability": "view",
      "type": "function",
      "constant": true
    },
    {
      "inputs": [],
      "name": "getUserCount",
      "outputs": [
        {
          "internalType": "uint256",
          "name": "",
          "type": "uint256"
        }
      ],
      "stateMutability": "view",
      "type": "function",
      "constant": true
    },
    {
      "inputs": [
        {
          "internalType": "string",
          "name": "_name",
          "type": "string"
        },
        {
          "internalType": "string",
          "name": "_password",
          "type": "string"
        },
        {
          "internalType": "string",
          "name": "_phone",
          "type": "string"
        }
      ],
      "name": "addUser",
      "outputs": [],
      "stateMutability": "nonpayable",
      "type": "function"
    },
    {
      "inputs": [
        {
          "internalType": "uint256",
          "name": "_id",
          "type": "uint256"
        }
      ],
      "name": "deleteUser",
      "outputs": [],
      "stateMutability": "nonpayable",
      "type": "function"
    },
    {
      "inputs": [
        {
          "internalType": "uint256",
          "name": "_id",
          "type": "uint256"
        },
        {
          "internalType": "string",
          "name": "_name",
          "type": "string"
        },
        {
          "internalType": "string",
          "name": "_password",
          "type": "string"
        },
        {
          "internalType": "string",
          "name": "_phone",
          "type": "string"
        }
      ],
      "name": "editUser",
      "outputs": [],
      "stateMutability": "nonpayable",
      "type": "function"
    },
    {
      "inputs": [],
      "name": "getParkingCount",
      "outputs": [
        {
          "internalType": "uint256",
          "name": "",
          "type": "uint256"
        }
      ],
      "stateMutability": "view",
      "type": "function",
      "constant": true
    },
    {
      "inputs": [
        {
          "internalType": "string",
          "name": "_name",
          "type": "string"
        },
        {
          "internalType": "string",
          "name": "_location",
          "type": "string"
        },
        {
          "internalType": "string",
          "name": "_capacity",
          "type": "string"
        }
      ],
      "name": "addParking",
      "outputs": [],
      "stateMutability": "nonpayable",
      "type": "function"
    },
    {
      "inputs": [
        {
          "internalType": "uint256",
          "name": "_id",
          "type": "uint256"
        }
      ],
      "name": "deleteParking",
      "outputs": [],
      "stateMutability": "nonpayable",
      "type": "function"
    },
    {
      "inputs": [
        {
          "internalType": "uint256",
          "name": "_id",
          "type": "uint256"
        },
        {
          "internalType": "string",
          "name": "_name",
          "type": "string"
        },
        {
          "internalType": "string",
          "name": "_location",
          "type": "string"
        },
        {
          "internalType": "string",
          "name": "_capacity",
          "type": "string"
        }
      ],
      "name": "editParking",
      "outputs": [],
      "stateMutability": "nonpayable",
      "type": "function"
    },
    {
      "inputs": [],
      "name": "getTimeslotCount",
      "outputs": [
        {
          "internalType": "uint256",
          "name": "",
          "type": "uint256"
        }
      ],
      "stateMutability": "view",
      "type": "function",
      "constant": true
    },
    {
      "inputs": [
        {
          "internalType": "string",
          "name": "_duration",
          "type": "string"
        },
        {
          "internalType": "string",
          "name": "_Price",
          "type": "string"
        }
      ],
      "name": "addTimeslot",
      "outputs": [],
      "stateMutability": "nonpayable",
      "type": "function"
    },
    {
      "inputs": [
        {
          "internalType": "uint256",
          "name": "_id",
          "type": "uint256"
        }
      ],
      "name": "deleteTimeslot",
      "outputs": [],
      "stateMutability": "nonpayable",
      "type": "function"
    },
    {
      "inputs": [
        {
          "internalType": "uint256",
          "name": "_id",
          "type": "uint256"
        },
        {
          "internalType": "string",
          "name": "_duration",
          "type": "string"
        },
        {
          "internalType": "string",
          "name": "_Price",
          "type": "string"
        }
      ],
      "name": "editTimeslot",
      "outputs": [],
      "stateMutability": "nonpayable",
      "type": "function"
    }
  ],
  "bytecode": "0x608060405234801561001057600080fd5b50600080819055506000600181905550600060028190555061155a806100376000396000f3fe608060405234801561001057600080fd5b50600436106101165760003560e01c806359409d47116100a2578063962cb75511610071578063962cb755146102d357806396bacbef146102ef578063b5cb15f71461030b578063be46b59f14610329578063ea63a54f1461034757610116565b806359409d471461026157806369e3b3171461027f5780638feba80f1461029b57806395c5fed4146102b757610116565b80632e0f0f76116100e95780632e0f0f76146101ba578063365b98b2146101d857806338f148451461020b57806349703bfb1461022757806355a5fc441461024357610116565b8063078ddea61461011b578063097cbfe51461014d5780630e4dfb2414610180578063159317241461019c575b600080fd5b610135600480360381019061013091906111e6565b610363565b6040516101449392919061139c565b60405180910390f35b610167600480360381019061016291906111e6565b6104bd565b60405161017794939291906113e1565b60405180910390f35b61019a6004803603810190610195919061114f565b6106b5565b005b6101a46107a1565b6040516101b19190611381565b60405180910390f35b6101c26107a7565b6040516101cf9190611381565b60405180910390f35b6101f260048036038101906101ed91906111e6565b6107ad565b60405161020294939291906113e1565b60405180910390f35b610225600480360381019061022091906111e6565b6109a5565b005b610241600480360381019061023c919061128e565b610a3f565b005b61024b610b14565b6040516102589190611381565b60405180910390f35b610269610b1a565b6040516102769190611381565b60405180910390f35b6102996004803603810190610294919061128e565b610b24565b005b6102b560048036038101906102b0919061120f565b610bf9565b005b6102d160048036038101906102cc919061114f565b610caa565b005b6102ed60048036038101906102e891906110e3565b610d94565b005b610309600480360381019061030491906111e6565b610e5c565b005b610313610ef7565b6040516103209190611381565b60405180910390f35b610331610f00565b60405161033e9190611381565b60405180910390f35b610361600480360381019061035c91906111e6565b610f0a565b005b6005602052806000526040600020600091509050806000015490806001018054600181600116156101000203166002900480601f0160208091040260200160405190810160405280929190818152602001828054600181600116156101000203166002900480156104155780601f106103ea57610100808354040283529160200191610415565b820191906000526020600020905b8154815290600101906020018083116103f857829003601f168201915b505050505090806002018054600181600116156101000203166002900480601f0160208091040260200160405190810160405280929190818152602001828054600181600116156101000203166002900480156104b35780601f10610488576101008083540402835291602001916104b3565b820191906000526020600020905b81548152906001019060200180831161049657829003601f168201915b5050505050905083565b6004602052806000526040600020600091509050806000015490806001018054600181600116156101000203166002900480601f01602080910402602001604051908101604052809291908181526020018280546001816001161561010002031660029004801561056f5780601f106105445761010080835404028352916020019161056f565b820191906000526020600020905b81548152906001019060200180831161055257829003601f168201915b505050505090806002018054600181600116156101000203166002900480601f01602080910402602001604051908101604052809291908181526020018280546001816001161561010002031660029004801561060d5780601f106105e25761010080835404028352916020019161060d565b820191906000526020600020905b8154815290600101906020018083116105f057829003601f168201915b505050505090806003018054600181600116156101000203166002900480601f0160208091040260200160405190810160405280929190818152602001828054600181600116156101000203166002900480156106ab5780601f10610680576101008083540402835291602001916106ab565b820191906000526020600020905b81548152906001019060200180831161068e57829003601f168201915b5050505050905084565b6040518060800160405280600154815260200184815260200183815260200182815250600460006001548152602001908152602001600020600082015181600001556020820151816001019080519060200190610713929190610f95565b506040820151816002019080519060200190610730929190610f95565b50606082015181600301908051906020019061074d929190610f95565b509050507f9f014f0a3ab6fcf5673c7c8d68bdb1e8145d7fd0ca84b2bf4fa6da090394bcdf6001546040516107829190611381565b60405180910390a1600160008154809291906001019190505550505050565b60005481565b60015481565b6003602052806000526040600020600091509050806000015490806001018054600181600116156101000203166002900480601f01602080910402602001604051908101604052809291908181526020018280546001816001161561010002031660029004801561085f5780601f106108345761010080835404028352916020019161085f565b820191906000526020600020905b81548152906001019060200180831161084257829003601f168201915b505050505090806002018054600181600116156101000203166002900480601f0160208091040260200160405190810160405280929190818152602001828054600181600116156101000203166002900480156108fd5780601f106108d2576101008083540402835291602001916108fd565b820191906000526020600020905b8154815290600101906020018083116108e057829003601f168201915b505050505090806003018054600181600116156101000203166002900480601f01602080910402602001604051908101604052809291908181526020018280546001816001161561010002031660029004801561099b5780601f106109705761010080835404028352916020019161099b565b820191906000526020600020905b81548152906001019060200180831161097e57829003601f168201915b5050505050905084565b600360008281526020019081526020016000206000808201600090556001820160006109d19190611015565b6002820160006109e19190611015565b6003820160006109f19190611015565b50506000808154809291906001900391905055507f42a77abd0397855f875460bb511f41935bfa5f396b556d95717d8c2e08334aae81604051610a349190611381565b60405180910390a150565b60405180608001604052808581526020018481526020018381526020018281525060036000868152602001908152602001600020600082015181600001556020820151816001019080519060200190610a99929190610f95565b506040820151816002019080519060200190610ab6929190610f95565b506060820151816003019080519060200190610ad3929190610f95565b509050507f29c9c79f57240563ee819e941228a194b90bb9ed36d4ee0b610e897d8712f5ae84604051610b069190611381565b60405180910390a150505050565b60025481565b6000600154905090565b60405180608001604052808581526020018481526020018381526020018281525060046000868152602001908152602001600020600082015181600001556020820151816001019080519060200190610b7e929190610f95565b506040820151816002019080519060200190610b9b929190610f95565b506060820151816003019080519060200190610bb8929190610f95565b509050507feddf0d3349a08c724995a7965a52c8ba572dce744afc51c5e5ae49d5b0fe206f84604051610beb9190611381565b60405180910390a150505050565b60405180606001604052808481526020018381526020018281525060056000858152602001908152602001600020600082015181600001556020820151816001019080519060200190610c4d929190610f95565b506040820151816002019080519060200190610c6a929190610f95565b509050507fafb113a81dceddc262c975344e0e05dbe773fd6637c8eee7840423c08e5f6ab283604051610c9d9190611381565b60405180910390a1505050565b60405180608001604052806000548152602001848152602001838152602001828152506003600080548152602001908152602001600020600082015181600001556020820151816001019080519060200190610d07929190610f95565b506040820151816002019080519060200190610d24929190610f95565b506060820151816003019080519060200190610d41929190610f95565b509050507f27412bb19840b11057dee7c7019767312555c4497d8d4c2383fa6b7791bf014b600054604051610d769190611381565b60405180910390a16000808154809291906001019190505550505050565b6040518060600160405280600254815260200183815260200182815250600560006002548152602001908152602001600020600082015181600001556020820151816001019080519060200190610dec929190610f95565b506040820151816002019080519060200190610e09929190610f95565b509050507f8f3ae92c8b088520dbadd5342b527764ffd81af0d2ad760dd58a773c391d2ee6600254604051610e3e9190611381565b60405180910390a16002600081548092919060010191905055505050565b60046000828152602001908152602001600020600080820160009055600182016000610e889190611015565b600282016000610e989190611015565b600382016000610ea89190611015565b5050600160008154809291906001900391905055507fd3672ddf19ff3e806ac617ec14d53052e030326a0d8d07a4c06bc75e99eb4a2f81604051610eec9190611381565b60405180910390a150565b60008054905090565b6000600254905090565b60056000828152602001908152602001600020600080820160009055600182016000610f369190611015565b600282016000610f469190611015565b5050600260008154809291906001900391905055507f923240576f985aca1bdba5214a048865def9e01c09e969454c5ac9e9b6872a0581604051610f8a9190611381565b60405180910390a150565b828054600181600116156101000203166002900490600052602060002090601f016020900481019282601f10610fd657805160ff1916838001178555611004565b82800160010185558215611004579182015b82811115611003578251825591602001919060010190610fe8565b5b509050611011919061105d565b5090565b50805460018160011615610100020316600290046000825580601f1061103b575061105a565b601f016020900490600052602060002090810190611059919061105d565b5b50565b5b8082111561107657600081600090555060010161105e565b5090565b600082601f83011261108b57600080fd5b813561109e61109982611468565b61143b565b915080825260208301602083018583830111156110ba57600080fd5b6110c58382846114ba565b50505092915050565b6000813590506110dd8161150d565b92915050565b600080604083850312156110f657600080fd5b600083013567ffffffffffffffff81111561111057600080fd5b61111c8582860161107a565b925050602083013567ffffffffffffffff81111561113957600080fd5b6111458582860161107a565b9150509250929050565b60008060006060848603121561116457600080fd5b600084013567ffffffffffffffff81111561117e57600080fd5b61118a8682870161107a565b935050602084013567ffffffffffffffff8111156111a757600080fd5b6111b38682870161107a565b925050604084013567ffffffffffffffff8111156111d057600080fd5b6111dc8682870161107a565b9150509250925092565b6000602082840312156111f857600080fd5b6000611206848285016110ce565b91505092915050565b60008060006060848603121561122457600080fd5b6000611232868287016110ce565b935050602084013567ffffffffffffffff81111561124f57600080fd5b61125b8682870161107a565b925050604084013567ffffffffffffffff81111561127857600080fd5b6112848682870161107a565b9150509250925092565b600080600080608085870312156112a457600080fd5b60006112b2878288016110ce565b945050602085013567ffffffffffffffff8111156112cf57600080fd5b6112db8782880161107a565b935050604085013567ffffffffffffffff8111156112f857600080fd5b6113048782880161107a565b925050606085013567ffffffffffffffff81111561132157600080fd5b61132d8782880161107a565b91505092959194509250565b600061134482611494565b61134e818561149f565b935061135e8185602086016114c9565b611367816114fc565b840191505092915050565b61137b816114b0565b82525050565b60006020820190506113966000830184611372565b92915050565b60006060820190506113b16000830186611372565b81810360208301526113c38185611339565b905081810360408301526113d78184611339565b9050949350505050565b60006080820190506113f66000830187611372565b81810360208301526114088186611339565b9050818103604083015261141c8185611339565b905081810360608301526114308184611339565b905095945050505050565b6000604051905081810181811067ffffffffffffffff8211171561145e57600080fd5b8060405250919050565b600067ffffffffffffffff82111561147f57600080fd5b601f19601f8301169050602081019050919050565b600081519050919050565b600082825260208201905092915050565b6000819050919050565b82818337600083830152505050565b60005b838110156114e75780820151818401526020810190506114cc565b838111156114f6576000848401525b50505050565b6000601f19601f8301169050919050565b611516816114b0565b811461152157600080fd5b5056fea26469706673582212204f4643f52b07869f1095889ebdb4232abc67714ebca857fe10c132c91756359c64736f6c634300060c0033",
  "immutableReferences": {},
  "source": "// SPDX-License-Identifier: GPL-3.0\npragma experimental ABIEncoderV2;\n\n\n\ncontract Parking {\n    uint256 public UserCount;\n    uint256 public ParkingCount;\n    uint256 public timeslotCount;\n\n    struct User {\n        uint256 id;\n        string name;\n        string password;\n        string phone;\n    }\n\n    struct Parking {\n        uint256 id;\n        string name;\n        string location;\n        string capacity; // Changed to string\n    }\n\n    struct Timeslot {\n        uint256 id;\n        string duration;\n        string Price;\n    }\n\n    mapping(uint256 => User) public users;\n    mapping(uint256 => Parking) public parkings;\n    mapping(uint256 => Timeslot) public timeslots;\n\n    constructor() public {\n        UserCount = 0;\n        ParkingCount = 0;\n        timeslotCount = 0;\n    }\n\n    event UserAdded(uint256 _id);\n    event UserDeleted(uint256 _id);\n    event UserEdited(uint256 _id);\n    event ParkingAdded(uint256 _id);\n    event ParkingDeleted(uint256 _id);\n    event ParkingEdited(uint256 _id);\n    event TimeslotAdded(uint256 _id);\n    event TimeslotDeleted(uint256 _id);\n    event TimeslotEdited(uint256 _id);\n\n    function getUserCount() public view returns (uint256) {\n        return UserCount;\n    }\n\n    function addUser(\n        string memory _name,\n        string memory _password,\n        string memory _phone\n    ) public {\n        users[UserCount] = User(\n            UserCount,\n            _name,\n            _password,\n            _phone\n        );\n        emit UserAdded(UserCount);\n        UserCount++;\n    }\n\n    function deleteUser(uint256 _id) public {\n        delete users[_id];\n        UserCount--;\n        emit UserDeleted(_id);\n    }\n\n    function editUser(\n        uint256 _id,\n        string memory _name,\n        string memory _password,\n        string memory _phone\n    ) public {\n        users[_id] = User(_id, _name, _password, _phone);\n        emit UserEdited(_id);\n    }\n\n    function getParkingCount() public view returns (uint256) {\n        return ParkingCount;\n    }\n\n    function addParking(\n        string memory _name,\n        string memory _location,\n        string memory _capacity // Changed to string\n    ) public {\n        parkings[ParkingCount] = Parking(\n            ParkingCount,\n            _name,\n            _location,\n            _capacity\n        );\n        emit ParkingAdded(ParkingCount);\n        ParkingCount++;\n    }\n\n    function deleteParking(uint256 _id) public {\n        delete parkings[_id];\n        ParkingCount--;\n        emit ParkingDeleted(_id);\n    }\n\n    function editParking(\n        uint256 _id,\n        string memory _name,\n        string memory _location,\n        string memory _capacity // Changed to string\n    ) public {\n        parkings[_id] = Parking(_id, _name, _location, _capacity);\n        emit ParkingEdited(_id);\n    }\n\n    function getTimeslotCount() public view returns (uint256) {\n        return timeslotCount;\n    }\n\n    function addTimeslot(\n        string memory _duration,\n        string memory _Price\n    ) public {\n        timeslots[timeslotCount] = Timeslot(\n            timeslotCount,\n            _duration,\n            _Price\n        );\n        emit TimeslotAdded(timeslotCount);\n        timeslotCount++;\n    }\n\n    function deleteTimeslot(uint256 _id) public {\n        delete timeslots[_id];\n        timeslotCount--;\n        emit TimeslotDeleted(_id);\n    }\n\n    function editTimeslot(\n        uint256 _id,\n        string memory _duration,\n        string memory _Price\n    ) public {\n        timeslots[_id] = Timeslot(_id, _duration, _Price);\n        emit TimeslotEdited(_id);\n    }\n}\n\n    \n\n    ",
  "sourcePath": "C:\\Users\\safac\\OneDrive\\Desktop\\SpotiParkPfa-metamask1\\contracts\\Parking.sol",
  "compiler": {
    "name": "solc",
    "version": "0.6.12+commit.27d51765.Emscripten.clang"
  },
  "schemaVersion": "3.4.16",
  "updatedAt": "2024-04-16T07:47:02.491Z",
  "networkType": "ethereum",
  "devdoc": {
    "kind": "dev",
    "methods": {},
    "version": 1
  },
  "userdoc": {
    "kind": "user",
    "methods": {},
    "version": 1
  }
}