{
  "contractName": "SmartParking",
  "abi": [
    {
      "inputs": [],
      "stateMutability": "nonpayable",
      "type": "constructor"
    },
    {
      "anonymous": false,
      "inputs": [
        {
          "indexed": false,
          "internalType": "address",
          "name": "from",
          "type": "address"
        },
        {
          "indexed": false,
          "internalType": "address",
          "name": "to",
          "type": "address"
        },
        {
          "indexed": false,
          "internalType": "uint256",
          "name": "amount",
          "type": "uint256"
        }
      ],
      "name": "Sent",
      "type": "event"
    },
    {
      "anonymous": false,
      "inputs": [
        {
          "indexed": false,
          "internalType": "uint256",
          "name": "_id",
          "type": "uint256"
        }
      ],
      "name": "UserAdded",
      "type": "event"
    },
    {
      "anonymous": false,
      "inputs": [
        {
          "indexed": false,
          "internalType": "uint256",
          "name": "_id",
          "type": "uint256"
        }
      ],
      "name": "UserDeleted",
      "type": "event"
    },
    {
      "anonymous": false,
      "inputs": [
        {
          "indexed": false,
          "internalType": "uint256",
          "name": "_id",
          "type": "uint256"
        }
      ],
      "name": "UserEdited",
      "type": "event"
    },
    {
      "anonymous": false,
      "inputs": [
        {
          "indexed": false,
          "internalType": "uint256",
          "name": "_id",
          "type": "uint256"
        }
      ],
      "name": "VehicleAdded",
      "type": "event"
    },
    {
      "anonymous": false,
      "inputs": [
        {
          "indexed": false,
          "internalType": "uint256",
          "name": "_id",
          "type": "uint256"
        }
      ],
      "name": "VehicleDeleted",
      "type": "event"
    },
    {
      "anonymous": false,
      "inputs": [
        {
          "indexed": false,
          "internalType": "uint256",
          "name": "_id",
          "type": "uint256"
        }
      ],
      "name": "VehicleEdited",
      "type": "event"
    },
    {
      "inputs": [],
      "name": "UserCount",
      "outputs": [
        {
          "internalType": "uint256",
          "name": "",
          "type": "uint256"
        }
      ],
      "stateMutability": "view",
      "type": "function",
      "constant": true
    },
    {
      "inputs": [
        {
          "internalType": "uint256",
          "name": "",
          "type": "uint256"
        }
      ],
      "name": "adopters",
      "outputs": [
        {
          "internalType": "address",
          "name": "",
          "type": "address"
        }
      ],
      "stateMutability": "view",
      "type": "function",
      "constant": true
    },
    {
      "inputs": [
        {
          "internalType": "address",
          "name": "",
          "type": "address"
        }
      ],
      "name": "balance",
      "outputs": [
        {
          "internalType": "uint256",
          "name": "",
          "type": "uint256"
        }
      ],
      "stateMutability": "view",
      "type": "function",
      "constant": true
    },
    {
      "inputs": [],
      "name": "minter",
      "outputs": [
        {
          "internalType": "address",
          "name": "",
          "type": "address"
        }
      ],
      "stateMutability": "view",
      "type": "function",
      "constant": true
    },
    {
      "inputs": [
        {
          "internalType": "uint256",
          "name": "",
          "type": "uint256"
        }
      ],
      "name": "transactions",
      "outputs": [
        {
          "internalType": "address",
          "name": "",
          "type": "address"
        }
      ],
      "stateMutability": "view",
      "type": "function",
      "constant": true
    },
    {
      "inputs": [
        {
          "internalType": "address",
          "name": "",
          "type": "address"
        }
      ],
      "name": "userBalances",
      "outputs": [
        {
          "internalType": "uint256",
          "name": "",
          "type": "uint256"
        }
      ],
      "stateMutability": "view",
      "type": "function",
      "constant": true
    },
    {
      "inputs": [
        {
          "internalType": "uint256",
          "name": "",
          "type": "uint256"
        }
      ],
      "name": "users",
      "outputs": [
        {
          "internalType": "uint256",
          "name": "id",
          "type": "uint256"
        },
        {
          "internalType": "string",
          "name": "name",
          "type": "string"
        },
        {
          "internalType": "string",
          "name": "password",
          "type": "string"
        },
        {
          "internalType": "string",
          "name": "phone",
          "type": "string"
        }
      ],
      "stateMutability": "view",
      "type": "function",
      "constant": true
    },
    {
      "inputs": [],
      "name": "vehicleCount",
      "outputs": [
        {
          "internalType": "uint256",
          "name": "",
          "type": "uint256"
        }
      ],
      "stateMutability": "view",
      "type": "function",
      "constant": true
    },
    {
      "inputs": [
        {
          "internalType": "uint256",
          "name": "",
          "type": "uint256"
        }
      ],
      "name": "vehicles",
      "outputs": [
        {
          "internalType": "uint256",
          "name": "id",
          "type": "uint256"
        },
        {
          "internalType": "string",
          "name": "brand",
          "type": "string"
        },
        {
          "internalType": "string",
          "name": "lisencePlate",
          "type": "string"
        },
        {
          "internalType": "string",
          "name": "model",
          "type": "string"
        }
      ],
      "stateMutability": "view",
      "type": "function",
      "constant": true
    },
    {
      "inputs": [
        {
          "internalType": "address",
          "name": "receiver",
          "type": "address"
        },
        {
          "internalType": "uint256",
          "name": "amount",
          "type": "uint256"
        }
      ],
      "name": "mint",
      "outputs": [],
      "stateMutability": "nonpayable",
      "type": "function"
    },
    {
      "inputs": [
        {
          "internalType": "address",
          "name": "sender",
          "type": "address"
        },
        {
          "internalType": "address",
          "name": "receiver",
          "type": "address"
        },
        {
          "internalType": "uint256",
          "name": "amount",
          "type": "uint256"
        }
      ],
      "name": "send",
      "outputs": [],
      "stateMutability": "nonpayable",
      "type": "function"
    },
    {
      "inputs": [],
      "name": "getUserCount",
      "outputs": [
        {
          "internalType": "uint256",
          "name": "",
          "type": "uint256"
        }
      ],
      "stateMutability": "view",
      "type": "function",
      "constant": true
    },
    {
      "inputs": [
        {
          "internalType": "string",
          "name": "_name",
          "type": "string"
        },
        {
          "internalType": "string",
          "name": "_password",
          "type": "string"
        },
        {
          "internalType": "string",
          "name": "_phone",
          "type": "string"
        }
      ],
      "name": "addUser",
      "outputs": [],
      "stateMutability": "nonpayable",
      "type": "function"
    },
    {
      "inputs": [
        {
          "internalType": "uint256",
          "name": "_id",
          "type": "uint256"
        }
      ],
      "name": "deleteUser",
      "outputs": [],
      "stateMutability": "nonpayable",
      "type": "function"
    },
    {
      "inputs": [
        {
          "internalType": "uint256",
          "name": "_id",
          "type": "uint256"
        },
        {
          "internalType": "string",
          "name": "_name",
          "type": "string"
        },
        {
          "internalType": "string",
          "name": "_password",
          "type": "string"
        },
        {
          "internalType": "string",
          "name": "_phone",
          "type": "string"
        }
      ],
      "name": "editUser",
      "outputs": [],
      "stateMutability": "nonpayable",
      "type": "function"
    },
    {
      "inputs": [
        {
          "internalType": "string",
          "name": "_name",
          "type": "string"
        },
        {
          "internalType": "string",
          "name": "_password",
          "type": "string"
        }
      ],
      "name": "signin",
      "outputs": [
        {
          "internalType": "bool",
          "name": "",
          "type": "bool"
        }
      ],
      "stateMutability": "view",
      "type": "function",
      "constant": true
    },
    {
      "inputs": [],
      "name": "getTransaction",
      "outputs": [
        {
          "internalType": "address[100]",
          "name": "",
          "type": "address[100]"
        }
      ],
      "stateMutability": "view",
      "type": "function",
      "constant": true
    },
    {
      "inputs": [
        {
          "internalType": "uint256",
          "name": "catId",
          "type": "uint256"
        },
        {
          "internalType": "address",
          "name": "adopter",
          "type": "address"
        },
        {
          "internalType": "string",
          "name": "duration",
          "type": "string"
        },
        {
          "internalType": "string",
          "name": "startTime",
          "type": "string"
        }
      ],
      "name": "adopt",
      "outputs": [
        {
          "internalType": "uint256",
          "name": "",
          "type": "uint256"
        }
      ],
      "stateMutability": "nonpayable",
      "type": "function"
    },
    {
      "inputs": [],
      "name": "getAdopters",
      "outputs": [
        {
          "internalType": "address[20]",
          "name": "",
          "type": "address[20]"
        }
      ],
      "stateMutability": "view",
      "type": "function",
      "constant": true
    },
    {
      "inputs": [
        {
          "internalType": "string",
          "name": "duration",
          "type": "string"
        },
        {
          "internalType": "uint256",
          "name": "ratePerHour",
          "type": "uint256"
        }
      ],
      "name": "calculateAmountToPay",
      "outputs": [
        {
          "internalType": "uint256",
          "name": "",
          "type": "uint256"
        }
      ],
      "stateMutability": "view",
      "type": "function",
      "constant": true
    },
    {
      "inputs": [
        {
          "internalType": "uint256",
          "name": "balance",
          "type": "uint256"
        },
        {
          "internalType": "uint256",
          "name": "amount",
          "type": "uint256"
        }
      ],
      "name": "pay",
      "outputs": [
        {
          "internalType": "uint256",
          "name": "",
          "type": "uint256"
        }
      ],
      "stateMutability": "view",
      "type": "function",
      "constant": true
    },
    {
      "inputs": [],
      "name": "getVehiculeCount",
      "outputs": [
        {
          "internalType": "uint256",
          "name": "",
          "type": "uint256"
        }
      ],
      "stateMutability": "view",
      "type": "function",
      "constant": true
    },
    {
      "inputs": [
        {
          "internalType": "string",
          "name": "_brand",
          "type": "string"
        },
        {
          "internalType": "string",
          "name": "_lisencePlate",
          "type": "string"
        },
        {
          "internalType": "string",
          "name": "_model",
          "type": "string"
        }
      ],
      "name": "addVehicle",
      "outputs": [],
      "stateMutability": "nonpayable",
      "type": "function"
    },
    {
      "inputs": [
        {
          "internalType": "uint256",
          "name": "_id",
          "type": "uint256"
        }
      ],
      "name": "deleteVehicle",
      "outputs": [],
      "stateMutability": "nonpayable",
      "type": "function"
    },
    {
      "inputs": [
        {
          "internalType": "uint256",
          "name": "_id",
          "type": "uint256"
        },
        {
          "internalType": "string",
          "name": "_brand",
          "type": "string"
        },
        {
          "internalType": "string",
          "name": "_lisencePlate",
          "type": "string"
        },
        {
          "internalType": "string",
          "name": "_model",
          "type": "string"
        }
      ],
      "name": "editVehicle",
      "outputs": [],
      "stateMutability": "nonpayable",
      "type": "function"
    }
  ],
  "bytecode": "0x608060405234801561001057600080fd5b5033600160006101000a81548173ffffffffffffffffffffffffffffffffffffffff021916908373ffffffffffffffffffffffffffffffffffffffff16021790555060006003819055506000808190555061246f806100706000396000f3fe608060405234801561001057600080fd5b50600436106101735760003560e01c806359332ad5116100de5780639970493711610097578063b5cb15f711610071578063b5cb15f7146111c1578063b8ba95fa146111df578063e3d670d714611365578063ef48eee6146113bd57610173565b806399704937146110725780639ace38c2146110905780639b55a2bb146110e857610173565b806359332ad51461094457806359705f8114610b2d57806374cc7e1314610b7357806379012a4b14610d0357806395c5fed414610d21578063990a4a9a14610f0a57610173565b80633a4a2c0b116101305780633a4a2c0b146104445780633de4eb171461047257806340c10f19146104b857806343ae80d3146105065780634815e3d21461055e57806349703bfb1461075157610173565b806307546172146101785780630779afe6146101ac578063159317241461021a57806326224c6414610238578063365b98b21461029057806338f1484514610416575b600080fd5b610180611409565b604051808273ffffffffffffffffffffffffffffffffffffffff16815260200191505060405180910390f35b610218600480360360608110156101c257600080fd5b81019080803573ffffffffffffffffffffffffffffffffffffffff169060200190929190803573ffffffffffffffffffffffffffffffffffffffff1690602001909291908035906020019092919050505061142f565b005b61022261158d565b6040518082815260200191505060405180910390f35b61027a6004803603602081101561024e57600080fd5b81019080803573ffffffffffffffffffffffffffffffffffffffff169060200190929190505050611593565b6040518082815260200191505060405180910390f35b6102bc600480360360208110156102a657600080fd5b81019080803590602001909291905050506115ab565b60405180858152602001806020018060200180602001848103845287818151815260200191508051906020019080838360005b8381101561030a5780820151818401526020810190506102ef565b50505050905090810190601f1680156103375780820380516001836020036101000a031916815260200191505b50848103835286818151815260200191508051906020019080838360005b83811015610370578082015181840152602081019050610355565b50505050905090810190601f16801561039d5780820380516001836020036101000a031916815260200191505b50848103825285818151815260200191508051906020019080838360005b838110156103d65780820151818401526020810190506103bb565b50505050905090810190601f1680156104035780820380516001836020036101000a031916815260200191505b5097505050505050505060405180910390f35b6104426004803603602081101561042c57600080fd5b81019080803590602001909291905050506117a3565b005b6104706004803603602081101561045a57600080fd5b810190808035906020019092919050505061183e565b005b61047a6118d8565b6040518082601460200280838360005b838110156104a557808201518184015260208101905061048a565b5050505090500191505060405180910390f35b610504600480360360408110156104ce57600080fd5b81019080803573ffffffffffffffffffffffffffffffffffffffff16906020019092919080359060200190929190505050611959565b005b6105326004803603602081101561051c57600080fd5b81019080803590602001909291905050506119aa565b604051808273ffffffffffffffffffffffffffffffffffffffff16815260200191505060405180910390f35b61074f6004803603608081101561057457600080fd5b81019080803590602001909291908035906020019064010000000081111561059b57600080fd5b8201836020820111156105ad57600080fd5b803590602001918460018302840111640100000000831117156105cf57600080fd5b91908080601f016020809104026020016040519081016040528093929190818152602001838380828437600081840152601f19601f8201169050808301925050505050505091929192908035906020019064010000000081111561063257600080fd5b82018360208201111561064457600080fd5b8035906020019184600183028401116401000000008311171561066657600080fd5b91908080601f016020809104026020016040519081016040528093929190818152602001838380828437600081840152601f19601f820116905080830192505050505050509192919290803590602001906401000000008111156106c957600080fd5b8201836020820111156106db57600080fd5b803590602001918460018302840111640100000000831117156106fd57600080fd5b91908080601f016020809104026020016040519081016040528093929190818152602001838380828437600081840152601f19601f8201169050808301925050505050505091929192905050506119dd565b005b6109426004803603608081101561076757600080fd5b81019080803590602001909291908035906020019064010000000081111561078e57600080fd5b8201836020820111156107a057600080fd5b803590602001918460018302840111640100000000831117156107c257600080fd5b91908080601f016020809104026020016040519081016040528093929190818152602001838380828437600081840152601f19601f8201169050808301925050505050505091929192908035906020019064010000000081111561082557600080fd5b82018360208201111561083757600080fd5b8035906020019184600183028401116401000000008311171561085957600080fd5b91908080601f016020809104026020016040519081016040528093929190818152602001838380828437600081840152601f19601f820116905080830192505050505050509192919290803590602001906401000000008111156108bc57600080fd5b8201836020820111156108ce57600080fd5b803590602001918460018302840111640100000000831117156108f057600080fd5b91908080601f016020809104026020016040519081016040528093929190818152602001838380828437600081840152601f19601f820116905080830192505050505050509192919290505050611ab2565b005b610b2b6004803603606081101561095a57600080fd5b810190808035906020019064010000000081111561097757600080fd5b82018360208201111561098957600080fd5b803590602001918460018302840111640100000000831117156109ab57600080fd5b91908080601f016020809104026020016040519081016040528093929190818152602001838380828437600081840152601f19601f82011690508083019250505050505050919291929080359060200190640100000000811115610a0e57600080fd5b820183602082011115610a2057600080fd5b80359060200191846001830284011164010000000083111715610a4257600080fd5b91908080601f016020809104026020016040519081016040528093929190818152602001838380828437600081840152601f19601f82011690508083019250505050505050919291929080359060200190640100000000811115610aa557600080fd5b820183602082011115610ab757600080fd5b80359060200191846001830284011164010000000083111715610ad957600080fd5b91908080601f016020809104026020016040519081016040528093929190818152602001838380828437600081840152601f19601f820116905080830192505050505050509192919290505050611b87565b005b610b35611c71565b6040518082606460200280838360005b83811015610b60578082015181840152602081019050610b45565b5050505090500191505060405180910390f35b610ced60048036036080811015610b8957600080fd5b8101908080359060200190929190803573ffffffffffffffffffffffffffffffffffffffff16906020019092919080359060200190640100000000811115610bd057600080fd5b820183602082011115610be257600080fd5b80359060200191846001830284011164010000000083111715610c0457600080fd5b91908080601f016020809104026020016040519081016040528093929190818152602001838380828437600081840152601f19601f82011690508083019250505050505050919291929080359060200190640100000000811115610c6757600080fd5b820183602082011115610c7957600080fd5b80359060200191846001830284011164010000000083111715610c9b57600080fd5b91908080601f016020809104026020016040519081016040528093929190818152602001838380828437600081840152601f19601f820116905080830192505050505050509192919290505050611cf2565b6040518082815260200191505060405180910390f35b610d0b611d66565b6040518082815260200191505060405180910390f35b610f0860048036036060811015610d3757600080fd5b8101908080359060200190640100000000811115610d5457600080fd5b820183602082011115610d6657600080fd5b80359060200191846001830284011164010000000083111715610d8857600080fd5b91908080601f016020809104026020016040519081016040528093929190818152602001838380828437600081840152601f19601f82011690508083019250505050505050919291929080359060200190640100000000811115610deb57600080fd5b820183602082011115610dfd57600080fd5b80359060200191846001830284011164010000000083111715610e1f57600080fd5b91908080601f016020809104026020016040519081016040528093929190818152602001838380828437600081840152601f19601f82011690508083019250505050505050919291929080359060200190640100000000811115610e8257600080fd5b820183602082011115610e9457600080fd5b80359060200191846001830284011164010000000083111715610eb657600080fd5b91908080601f016020809104026020016040519081016040528093929190818152602001838380828437600081840152601f19601f820116905080830192505050505050509192919290505050611d6f565b005b61105a60048036036040811015610f2057600080fd5b8101908080359060200190640100000000811115610f3d57600080fd5b820183602082011115610f4f57600080fd5b80359060200191846001830284011164010000000083111715610f7157600080fd5b91908080601f016020809104026020016040519081016040528093929190818152602001838380828437600081840152601f19601f82011690508083019250505050505050919291929080359060200190640100000000811115610fd457600080fd5b820183602082011115610fe657600080fd5b8035906020019184600183028401116401000000008311171561100857600080fd5b91908080601f016020809104026020016040519081016040528093929190818152602001838380828437600081840152601f19601f820116905080830192505050505050509192919290505050611e9b565b60405180821515815260200191505060405180910390f35b61107a611feb565b6040518082815260200191505060405180910390f35b6110bc600480360360208110156110a657600080fd5b8101908080359060200190929190505050611ff1565b604051808273ffffffffffffffffffffffffffffffffffffffff16815260200191505060405180910390f35b6111ab600480360360408110156110fe57600080fd5b810190808035906020019064010000000081111561111b57600080fd5b82018360208201111561112d57600080fd5b8035906020019184600183028401116401000000008311171561114f57600080fd5b91908080601f016020809104026020016040519081016040528093929190818152602001838380828437600081840152601f19601f82011690508083019250505050505050919291929080359060200190929190505050612024565b6040518082815260200191505060405180910390f35b6111c9612044565b6040518082815260200191505060405180910390f35b61120b600480360360208110156111f557600080fd5b810190808035906020019092919050505061204e565b60405180858152602001806020018060200180602001848103845287818151815260200191508051906020019080838360005b8381101561125957808201518184015260208101905061123e565b50505050905090810190601f1680156112865780820380516001836020036101000a031916815260200191505b50848103835286818151815260200191508051906020019080838360005b838110156112bf5780820151818401526020810190506112a4565b50505050905090810190601f1680156112ec5780820380516001836020036101000a031916815260200191505b50848103825285818151815260200191508051906020019080838360005b8381101561132557808201518184015260208101905061130a565b50505050905090810190601f1680156113525780820380516001836020036101000a031916815260200191505b5097505050505050505060405180910390f35b6113a76004803603602081101561137b57600080fd5b81019080803573ffffffffffffffffffffffffffffffffffffffff169060200190929190505050612246565b6040518082815260200191505060405180910390f35b6113f3600480360360408110156113d357600080fd5b81019080803590602001909291908035906020019092919050505061225e565b6040518082815260200191505060405180910390f35b600160009054906101000a900473ffffffffffffffffffffffffffffffffffffffff1681565b80600260008573ffffffffffffffffffffffffffffffffffffffff1673ffffffffffffffffffffffffffffffffffffffff16815260200190815260200160002054101561147b57600080fd5b80600260008573ffffffffffffffffffffffffffffffffffffffff1673ffffffffffffffffffffffffffffffffffffffff1681526020019081526020016000206000828254039250508190555080600260008473ffffffffffffffffffffffffffffffffffffffff1673ffffffffffffffffffffffffffffffffffffffff168152602001908152602001600020600082825401925050819055507f3990db2d31862302a685e8086b5755072a6e2b5b780af1ee81ece35ee3cd3345838383604051808473ffffffffffffffffffffffffffffffffffffffff1681526020018373ffffffffffffffffffffffffffffffffffffffff168152602001828152602001935050505060405180910390a1505050565b60035481565b60046020528060005260406000206000915090505481565b6005602052806000526040600020600091509050806000015490806001018054600181600116156101000203166002900480601f01602080910402602001604051908101604052809291908181526020018280546001816001161561010002031660029004801561165d5780601f106116325761010080835404028352916020019161165d565b820191906000526020600020905b81548152906001019060200180831161164057829003601f168201915b505050505090806002018054600181600116156101000203166002900480601f0160208091040260200160405190810160405280929190818152602001828054600181600116156101000203166002900480156116fb5780601f106116d0576101008083540402835291602001916116fb565b820191906000526020600020905b8154815290600101906020018083116116de57829003601f168201915b505050505090806003018054600181600116156101000203166002900480601f0160208091040260200160405190810160405280929190818152602001828054600181600116156101000203166002900480156117995780601f1061176e57610100808354040283529160200191611799565b820191906000526020600020905b81548152906001019060200180831161177c57829003601f168201915b5050505050905084565b600560008281526020019081526020016000206000808201600090556001820160006117cf919061230e565b6002820160006117df919061230e565b6003820160006117ef919061230e565b5050600360008154809291906001900391905055507f42a77abd0397855f875460bb511f41935bfa5f396b556d95717d8c2e08334aae816040518082815260200191505060405180910390a150565b607e600082815260200190815260200160002060008082016000905560018201600061186a919061230e565b60028201600061187a919061230e565b60038201600061188a919061230e565b50506000808154809291906001900391905055507fe0e93c98b6521783b1a5188daabb5e51726534e31ca82d44f9e41a024b880474816040518082815260200191505060405180910390a150565b6118e0612356565b606a60148060200260405190810160405280929190826014801561194f576020028201915b8160009054906101000a900473ffffffffffffffffffffffffffffffffffffffff1673ffffffffffffffffffffffffffffffffffffffff1681526020019060010190808311611905575b5050505050905090565b80600260008473ffffffffffffffffffffffffffffffffffffffff1673ffffffffffffffffffffffffffffffffffffffff168152602001908152602001600020600082825401925050819055505050565b606a81601481106119b757fe5b016000915054906101000a900473ffffffffffffffffffffffffffffffffffffffff1681565b604051806080016040528085815260200184815260200183815260200182815250607e6000868152602001908152602001600020600082015181600001556020820151816001019080519060200190611a37929190612379565b506040820151816002019080519060200190611a54929190612379565b506060820151816003019080519060200190611a71929190612379565b509050507f95c871e1f70868093a51a8fcbaaee64858343729ef71966d01f08fdef56e4749846040518082815260200191505060405180910390a150505050565b60405180608001604052808581526020018481526020018381526020018281525060056000868152602001908152602001600020600082015181600001556020820151816001019080519060200190611b0c929190612379565b506040820151816002019080519060200190611b29929190612379565b506060820151816003019080519060200190611b46929190612379565b509050507f29c9c79f57240563ee819e941228a194b90bb9ed36d4ee0b610e897d8712f5ae846040518082815260200191505060405180910390a150505050565b6040518060800160405280600054815260200184815260200183815260200182815250607e600080548152602001908152602001600020600082015181600001556020820151816001019080519060200190611be4929190612379565b506040820151816002019080519060200190611c01929190612379565b506060820151816003019080519060200190611c1e929190612379565b509050507f55a66d8a7427c900449f95db666f83dcd44c6afac57572e03fdf06f7d47be2266000546040518082815260200191505060405180910390a16000808154809291906001019190505550505050565b611c796123f9565b6006606480602002604051908101604052809291908260648015611ce8576020028201915b8160009054906101000a900473ffffffffffffffffffffffffffffffffffffffff1673ffffffffffffffffffffffffffffffffffffffff1681526020019060010190808311611c9e575b5050505050905090565b6000808510158015611d05575060138511155b611d0e57600080fd5b83606a8660148110611d1c57fe5b0160006101000a81548173ffffffffffffffffffffffffffffffffffffffff021916908373ffffffffffffffffffffffffffffffffffffffff160217905550849050949350505050565b60008054905090565b6040518060800160405280600354815260200184815260200183815260200182815250600560006003548152602001908152602001600020600082015181600001556020820151816001019080519060200190611dcd929190612379565b506040820151816002019080519060200190611dea929190612379565b506060820151816003019080519060200190611e07929190612379565b50905050600360008154600101919050819055600460003373ffffffffffffffffffffffffffffffffffffffff1673ffffffffffffffffffffffffffffffffffffffff168152602001908152602001600020819055507f27412bb19840b11057dee7c7019767312555c4497d8d4c2383fa6b7791bf014b6003546040518082815260200191505060405180910390a1505050565b600080600090505b600354811015611fdf578380519060200120600560008381526020019081526020016000206001016040518082805460018160011615610100020316600290048015611f265780601f10611f04576101008083540402835291820191611f26565b820191906000526020600020905b815481529060010190602001808311611f12575b50509150506040518091039020148015611fc357508280519060200120600560008381526020019081526020016000206002016040518082805460018160011615610100020316600290048015611fb45780601f10611f92576101008083540402835291820191611fb4565b820191906000526020600020905b815481529060010190602001808311611fa0575b50509150506040518091039020145b15611fd2576001915050611fe5565b8080600101915050611ea3565b50600090505b92915050565b60005481565b60068160648110611ffe57fe5b016000915054906101000a900473ffffffffffffffffffffffffffffffffffffffff1681565b6000806120308461226b565b905060008382029050809250505092915050565b6000600354905090565b607e602052806000526040600020600091509050806000015490806001018054600181600116156101000203166002900480601f0160208091040260200160405190810160405280929190818152602001828054600181600116156101000203166002900480156121005780601f106120d557610100808354040283529160200191612100565b820191906000526020600020905b8154815290600101906020018083116120e357829003601f168201915b505050505090806002018054600181600116156101000203166002900480601f01602080910402602001604051908101604052809291908181526020018280546001816001161561010002031660029004801561219e5780601f106121735761010080835404028352916020019161219e565b820191906000526020600020905b81548152906001019060200180831161218157829003601f168201915b505050505090806003018054600181600116156101000203166002900480601f01602080910402602001604051908101604052809291908181526020018280546001816001161561010002031660029004801561223c5780601f106122115761010080835404028352916020019161223c565b820191906000526020600020905b81548152906001019060200180831161221f57829003601f168201915b5050505050905084565b60026020528060005260406000206000915090505481565b6000818303905092915050565b600060608290506000805b825181101561230357603083828151811061228d57fe5b602001015160f81c60f81b60f81c60ff16101580156122c9575060398382815181106122b557fe5b602001015160f81c60f81b60f81c60ff1611155b156122f65760308382815181106122dc57fe5b602001015160f81c60f81b60f81c0360ff16600a83020191505b8080600101915050612276565b508092505050919050565b50805460018160011615610100020316600290046000825580601f106123345750612353565b601f016020900490600052602060002090810190612352919061241c565b5b50565b604051806102800160405280601490602082028036833780820191505090505090565b828054600181600116156101000203166002900490600052602060002090601f016020900481019282601f106123ba57805160ff19168380011785556123e8565b828001600101855582156123e8579182015b828111156123e75782518255916020019190600101906123cc565b5b5090506123f5919061241c565b5090565b60405180610c800160405280606490602082028036833780820191505090505090565b5b8082111561243557600081600090555060010161241d565b509056fea2646970667358221220bb8b2b5f1ddfe7615c896794bcc111da2ad320041e95be0718ef7a919dfc6c5a64736f6c634300060c0033",
  "immutableReferences": {},
  "source": "// SPDX-License-Identifier: MIT\r\npragma solidity >=0.4.16 <0.9.0 ;\r\n\r\ncontract SmartParking{\r\n        uint256 public vehicleCount;\r\n\r\n    constructor() public{\r\n        minter = msg.sender ;\r\n        UserCount = 0;\r\n        vehicleCount=0;\r\n\r\n        \r\n    }\r\n    //money part\r\n    address public minter ;\r\n    mapping(address => uint) public balance ;\r\n\r\n    // Events allow light client to react on changes effectively\r\n    event Sent(address from, address to, uint amount) ;\r\n    function mint(address receiver, uint amount) public{\r\n        balance[receiver] += amount ;\r\n    }\r\n\r\n    function send(address sender, address receiver, uint amount) public{\r\n        if(balance[sender] < amount) revert() ;\r\n        balance[sender] -= amount ;\r\n        balance[receiver] += amount ;\r\n        emit Sent(sender,receiver,amount) ;\r\n    }\r\n\r\n    //authentification\r\n        uint256 public UserCount;\r\n\r\n    struct User {\r\n        uint256 id;\r\n        string name;\r\n        string password;\r\n        string phone;\r\n    }\r\n\r\n    event UserAdded(uint256 _id);\r\n    event UserDeleted(uint256 _id);\r\n    event UserEdited(uint256 _id);\r\n  \r\n\r\n    mapping(address => uint256) public userBalances;\r\n    mapping(uint256 => User) public users;\r\n\r\n   \r\n\r\n    function getUserCount() public view returns (uint256) {\r\n        return UserCount;\r\n    }\r\n\r\n    function addUser(\r\n        string memory _name,\r\n        string memory _password,\r\n        string memory _phone\r\n    ) public {\r\n        users[UserCount] = User(\r\n            UserCount,\r\n            _name,\r\n            _password,\r\n            _phone\r\n        );\r\n        userBalances[msg.sender] = ++UserCount;\r\n\r\n        emit UserAdded(UserCount);\r\n    }\r\n\r\n    function deleteUser(uint256 _id) public {\r\n        delete users[_id];\r\n        UserCount--;\r\n        emit UserDeleted(_id);\r\n    }\r\n\r\n    function editUser(\r\n        uint256 _id,\r\n        string memory _name,\r\n        string memory _password,\r\n        string memory _phone\r\n    ) public {\r\n        users[_id] = User(_id, _name, _password, _phone);\r\n        emit UserEdited(_id);\r\n    }\r\n\r\n    function signin(string memory _name, string memory _password) public view returns (bool) {\r\n        for (uint256 i = 0; i < UserCount; i++) {\r\n            if (keccak256(bytes(users[i].name)) == keccak256(bytes(_name)) &&\r\n                keccak256(bytes(users[i].password)) == keccak256(bytes(_password))) {\r\n                return true;\r\n            }\r\n        }\r\n        return false;\r\n    }\r\n    address[100] public transactions;\r\n    function getTransaction() public view returns(address[100] memory){\r\n        return transactions;\r\n    }\r\n    //booking part\r\n     address[20] public adopters ;\r\n\r\n    function adopt(uint catId, address adopter, string memory duration,string memory startTime) public returns(uint) {\r\n        require(catId>=0 && catId<=19) ;\r\n        adopters[catId] = adopter ;\r\n        return catId ;\r\n    }\r\n\r\n    function getAdopters() public view returns(address[20] memory){\r\n        return adopters ;\r\n    }\r\n        function calculateAmountToPay(string memory duration, uint ratePerHour) public view returns (uint) {\r\n        // Convertir la dure et l'heure de dbut en valeurs numriques pour le calcul\r\n        uint durationInHours = parseDuration(duration);\r\n\r\n        // Calculer la dure en heures\r\n        uint amountToPay = durationInHours * ratePerHour;\r\n\r\n        return amountToPay;\r\n    }\r\nfunction parseDuration(string memory duration) internal pure returns (uint) {\r\n    bytes memory durationBytes = bytes(duration);\r\n    uint result = 0;\r\n    for (uint i = 0; i < durationBytes.length; i++) {\r\n        if (uint8(durationBytes[i]) >= 48 && uint8(durationBytes[i]) <= 57) {\r\n            result = result * 10 + (uint8(durationBytes[i]) - 48);\r\n        }\r\n    }\r\n    return result;\r\n}\r\nfunction pay(uint balance, uint amount) public view returns (uint) {\r\n        return balance - amount;\r\n    \r\n    \r\n}\r\n\r\n\r\n\r\n\r\n\r\n\r\n    //vehicule part\r\n      struct Vehicle {\r\n        uint256 id;\r\n        string brand;\r\n        string lisencePlate;\r\n        string model;\r\n    }\r\n        mapping(uint256 => Vehicle) public vehicles;\r\n   event VehicleAdded(uint256 _id);\r\n    event VehicleDeleted(uint256 _id);\r\n    event VehicleEdited(uint256 _id);\r\n         function getVehiculeCount() public view returns (uint256 ){\r\n        return vehicleCount;\r\n    }\r\n\r\n    function addVehicle(\r\n        string memory _brand,\r\n        string memory _lisencePlate,\r\n        string memory _model\r\n    ) public {\r\n        vehicles[vehicleCount] = Vehicle(\r\n            vehicleCount,\r\n            _brand,\r\n            _lisencePlate,\r\n            _model\r\n        );\r\n        emit VehicleAdded(vehicleCount);\r\n        vehicleCount++;\r\n    }\r\n\r\n    function deleteVehicle(uint256 _id) public {\r\n        delete vehicles[_id];\r\n        vehicleCount--;\r\n        emit VehicleDeleted(_id);\r\n    }\r\n\r\n    function editVehicle(\r\n        uint256 _id,\r\n        string memory _brand,\r\n        string memory _lisencePlate,\r\n        string memory _model\r\n    ) public {\r\n        vehicles[_id] = Vehicle(_id, _brand, _lisencePlate, _model);\r\n        emit VehicleEdited(_id);\r\n    }\r\n\r\n\r\n   }",
  "sourcePath": "C:\\Users\\safac\\OneDrive\\Desktop\\Spotipark-3\\contracts\\SmartParking.sol",
  "compiler": {
    "name": "solc",
    "version": "0.6.12+commit.27d51765.Emscripten.clang"
  },
  "schemaVersion": "3.4.16",
  "updatedAt": "2024-12-08T16:27:56.024Z",
  "networkType": "ethereum",
  "devdoc": {
    "kind": "dev",
    "methods": {},
    "version": 1
  },
  "userdoc": {
    "kind": "user",
    "methods": {},
    "version": 1
  }
}